{"contracts/smstest.sol":{"SMSOracle":{"abi":[{"anonymous":false,"inputs":[{"indexed":false,"internalType":"string","name":"phoneNumber","type":"string"},{"indexed":false,"internalType":"string","name":"message","type":"string"}],"name":"SendSMS","type":"event"},{"inputs":[{"internalType":"string","name":"phoneNumber","type":"string"},{"internalType":"string","name":"message","type":"string"}],"name":"requestSMS","outputs":[],"stateMutability":"nonpayable","type":"function"}],"evm":{"bytecode":{"linkReferences":{},"object":"608060405234801561001057600080fd5b50610393806100206000396000f3fe608060405234801561001057600080fd5b506004361061002b5760003560e01c8063b30baa3d14610030575b600080fd5b61004a6004803603810190610045919061022f565b61004c565b005b60008054906101000a900460ff161561006457600080fd5b60016000806101000a81548160ff0219169083151502179055507fe3e55892fc5ad134348ab702095addc3017dd5b1b0ea5be15b74215cdd563f0082826040516100af929190610326565b60405180910390a160008060006101000a81548160ff0219169083151502179055505050565b6000604051905090565b600080fd5b600080fd5b600080fd5b600080fd5b6000601f19601f8301169050919050565b7f4e487b7100000000000000000000000000000000000000000000000000000000600052604160045260246000fd5b61013c826100f3565b810181811067ffffffffffffffff8211171561015b5761015a610104565b5b80604052505050565b600061016e6100d5565b905061017a8282610133565b919050565b600067ffffffffffffffff82111561019a57610199610104565b5b6101a3826100f3565b9050602081019050919050565b82818337600083830152505050565b60006101d26101cd8461017f565b610164565b9050828152602081018484840111156101ee576101ed6100ee565b5b6101f98482856101b0565b509392505050565b600082601f830112610216576102156100e9565b5b81356102268482602086016101bf565b91505092915050565b60008060408385031215610246576102456100df565b5b600083013567ffffffffffffffff811115610264576102636100e4565b5b61027085828601610201565b925050602083013567ffffffffffffffff811115610291576102906100e4565b5b61029d85828601610201565b9150509250929050565b600081519050919050565b600082825260208201905092915050565b60005b838110156102e15780820151818401526020810190506102c6565b60008484015250505050565b60006102f8826102a7565b61030281856102b2565b93506103128185602086016102c3565b61031b816100f3565b840191505092915050565b6000604082019050818103600083015261034081856102ed565b9050818103602083015261035481846102ed565b9050939250505056fea2646970667358221220d40b94c37928ea3ea2638646ea4f1aec98b32eb60f9b365827f818bef6a7e4ba64736f6c63430008110033","opcodes":"PUSH1 0x80 PUSH1 0x40 MSTORE CALLVALUE DUP1 ISZERO PUSH2 0x10 JUMPI PUSH1 0x0 DUP1 REVERT JUMPDEST POP PUSH2 0x393 DUP1 PUSH2 0x20 PUSH1 0x0 CODECOPY PUSH1 0x0 RETURN INVALID PUSH1 0x80 PUSH1 0x40 MSTORE CALLVALUE DUP1 ISZERO PUSH2 0x10 JUMPI PUSH1 0x0 DUP1 REVERT JUMPDEST POP PUSH1 0x4 CALLDATASIZE LT PUSH2 0x2B JUMPI PUSH1 0x0 CALLDATALOAD PUSH1 0xE0 SHR DUP1 PUSH4 0xB30BAA3D EQ PUSH2 0x30 JUMPI JUMPDEST PUSH1 0x0 DUP1 REVERT JUMPDEST PUSH2 0x4A PUSH1 0x4 DUP1 CALLDATASIZE SUB DUP2 ADD SWAP1 PUSH2 0x45 SWAP2 SWAP1 PUSH2 0x22F JUMP JUMPDEST PUSH2 0x4C JUMP JUMPDEST STOP JUMPDEST PUSH1 0x0 DUP1 SLOAD SWAP1 PUSH2 0x100 EXP SWAP1 DIV PUSH1 0xFF AND ISZERO PUSH2 0x64 JUMPI PUSH1 0x0 DUP1 REVERT JUMPDEST PUSH1 0x1 PUSH1 0x0 DUP1 PUSH2 0x100 EXP DUP2 SLOAD DUP2 PUSH1 0xFF MUL NOT AND SWAP1 DUP4 ISZERO ISZERO MUL OR SWAP1 SSTORE POP PUSH32 0xE3E55892FC5AD134348AB702095ADDC3017DD5B1B0EA5BE15B74215CDD563F00 DUP3 DUP3 PUSH1 0x40 MLOAD PUSH2 0xAF SWAP3 SWAP2 SWAP1 PUSH2 0x326 JUMP JUMPDEST PUSH1 0x40 MLOAD DUP1 SWAP2 SUB SWAP1 LOG1 PUSH1 0x0 DUP1 PUSH1 0x0 PUSH2 0x100 EXP DUP2 SLOAD DUP2 PUSH1 0xFF MUL NOT AND SWAP1 DUP4 ISZERO ISZERO MUL OR SWAP1 SSTORE POP POP POP JUMP JUMPDEST PUSH1 0x0 PUSH1 0x40 MLOAD SWAP1 POP SWAP1 JUMP JUMPDEST PUSH1 0x0 DUP1 REVERT JUMPDEST PUSH1 0x0 DUP1 REVERT JUMPDEST PUSH1 0x0 DUP1 REVERT JUMPDEST PUSH1 0x0 DUP1 REVERT JUMPDEST PUSH1 0x0 PUSH1 0x1F NOT PUSH1 0x1F DUP4 ADD AND SWAP1 POP SWAP2 SWAP1 POP JUMP JUMPDEST PUSH32 0x4E487B7100000000000000000000000000000000000000000000000000000000 PUSH1 0x0 MSTORE PUSH1 0x41 PUSH1 0x4 MSTORE PUSH1 0x24 PUSH1 0x0 REVERT JUMPDEST PUSH2 0x13C DUP3 PUSH2 0xF3 JUMP JUMPDEST DUP2 ADD DUP2 DUP2 LT PUSH8 0xFFFFFFFFFFFFFFFF DUP3 GT OR ISZERO PUSH2 0x15B JUMPI PUSH2 0x15A PUSH2 0x104 JUMP JUMPDEST JUMPDEST DUP1 PUSH1 0x40 MSTORE POP POP POP JUMP JUMPDEST PUSH1 0x0 PUSH2 0x16E PUSH2 0xD5 JUMP JUMPDEST SWAP1 POP PUSH2 0x17A DUP3 DUP3 PUSH2 0x133 JUMP JUMPDEST SWAP2 SWAP1 POP JUMP JUMPDEST PUSH1 0x0 PUSH8 0xFFFFFFFFFFFFFFFF DUP3 GT ISZERO PUSH2 0x19A JUMPI PUSH2 0x199 PUSH2 0x104 JUMP JUMPDEST JUMPDEST PUSH2 0x1A3 DUP3 PUSH2 0xF3 JUMP JUMPDEST SWAP1 POP PUSH1 0x20 DUP2 ADD SWAP1 POP SWAP2 SWAP1 POP JUMP JUMPDEST DUP3 DUP2 DUP4 CALLDATACOPY PUSH1 0x0 DUP4 DUP4 ADD MSTORE POP POP POP JUMP JUMPDEST PUSH1 0x0 PUSH2 0x1D2 PUSH2 0x1CD DUP5 PUSH2 0x17F JUMP JUMPDEST PUSH2 0x164 JUMP JUMPDEST SWAP1 POP DUP3 DUP2 MSTORE PUSH1 0x20 DUP2 ADD DUP5 DUP5 DUP5 ADD GT ISZERO PUSH2 0x1EE JUMPI PUSH2 0x1ED PUSH2 0xEE JUMP JUMPDEST JUMPDEST PUSH2 0x1F9 DUP5 DUP3 DUP6 PUSH2 0x1B0 JUMP JUMPDEST POP SWAP4 SWAP3 POP POP POP JUMP JUMPDEST PUSH1 0x0 DUP3 PUSH1 0x1F DUP4 ADD SLT PUSH2 0x216 JUMPI PUSH2 0x215 PUSH2 0xE9 JUMP JUMPDEST JUMPDEST DUP2 CALLDATALOAD PUSH2 0x226 DUP5 DUP3 PUSH1 0x20 DUP7 ADD PUSH2 0x1BF JUMP JUMPDEST SWAP2 POP POP SWAP3 SWAP2 POP POP JUMP JUMPDEST PUSH1 0x0 DUP1 PUSH1 0x40 DUP4 DUP6 SUB SLT ISZERO PUSH2 0x246 JUMPI PUSH2 0x245 PUSH2 0xDF JUMP JUMPDEST JUMPDEST PUSH1 0x0 DUP4 ADD CALLDATALOAD PUSH8 0xFFFFFFFFFFFFFFFF DUP2 GT ISZERO PUSH2 0x264 JUMPI PUSH2 0x263 PUSH2 0xE4 JUMP JUMPDEST JUMPDEST PUSH2 0x270 DUP6 DUP3 DUP7 ADD PUSH2 0x201 JUMP JUMPDEST SWAP3 POP POP PUSH1 0x20 DUP4 ADD CALLDATALOAD PUSH8 0xFFFFFFFFFFFFFFFF DUP2 GT ISZERO PUSH2 0x291 JUMPI PUSH2 0x290 PUSH2 0xE4 JUMP JUMPDEST JUMPDEST PUSH2 0x29D DUP6 DUP3 DUP7 ADD PUSH2 0x201 JUMP JUMPDEST SWAP2 POP POP SWAP3 POP SWAP3 SWAP1 POP JUMP JUMPDEST PUSH1 0x0 DUP2 MLOAD SWAP1 POP SWAP2 SWAP1 POP JUMP JUMPDEST PUSH1 0x0 DUP3 DUP3 MSTORE PUSH1 0x20 DUP3 ADD SWAP1 POP SWAP3 SWAP2 POP POP JUMP JUMPDEST PUSH1 0x0 JUMPDEST DUP4 DUP2 LT ISZERO PUSH2 0x2E1 JUMPI DUP1 DUP3 ADD MLOAD DUP2 DUP5 ADD MSTORE PUSH1 0x20 DUP2 ADD SWAP1 POP PUSH2 0x2C6 JUMP JUMPDEST PUSH1 0x0 DUP5 DUP5 ADD MSTORE POP POP POP POP JUMP JUMPDEST PUSH1 0x0 PUSH2 0x2F8 DUP3 PUSH2 0x2A7 JUMP JUMPDEST PUSH2 0x302 DUP2 DUP6 PUSH2 0x2B2 JUMP JUMPDEST SWAP4 POP PUSH2 0x312 DUP2 DUP6 PUSH1 0x20 DUP7 ADD PUSH2 0x2C3 JUMP JUMPDEST PUSH2 0x31B DUP2 PUSH2 0xF3 JUMP JUMPDEST DUP5 ADD SWAP2 POP POP SWAP3 SWAP2 POP POP JUMP JUMPDEST PUSH1 0x0 PUSH1 0x40 DUP3 ADD SWAP1 POP DUP2 DUP2 SUB PUSH1 0x0 DUP4 ADD MSTORE PUSH2 0x340 DUP2 DUP6 PUSH2 0x2ED JUMP JUMPDEST SWAP1 POP DUP2 DUP2 SUB PUSH1 0x20 DUP4 ADD MSTORE PUSH2 0x354 DUP2 DUP5 PUSH2 0x2ED JUMP JUMPDEST SWAP1 POP SWAP4 SWAP3 POP POP POP JUMP INVALID LOG2 PUSH5 0x6970667358 0x22 SLT KECCAK256 0xD4 SIGNEXTEND SWAP5 0xC3 PUSH26 0x28EA3EA2638646EA4F1AEC98B32EB60F9B365827F818BEF6A7E4 0xBA PUSH5 0x736F6C6343 STOP ADDMOD GT STOP CALLER "},"methodIdentifiers":{"requestSMS(string,string)":"b30baa3d"}}}}}