{
  "_format": "hh-sol-artifact-1",
  "contractName": "SMSOracle",
  "sourceName": "contracts/smstest.sol",
  "abi": [
    {
      "anonymous": false,
      "inputs": [
        {
          "indexed": false,
          "internalType": "string",
          "name": "phoneNumber",
          "type": "string"
        },
        {
          "indexed": false,
          "internalType": "string",
          "name": "message",
          "type": "string"
        }
      ],
      "name": "SendSMS",
      "type": "event"
    },
    {
      "inputs": [
        {
          "internalType": "string",
          "name": "phoneNumber",
          "type": "string"
        },
        {
          "internalType": "string",
          "name": "message",
          "type": "string"
        }
      ],
      "name": "requestSMS",
      "outputs": [],
      "stateMutability": "nonpayable",
      "type": "function"
    }
  ],
  "bytecode": "0x608060405234801561001057600080fd5b50610393806100206000396000f3fe608060405234801561001057600080fd5b506004361061002b5760003560e01c8063b30baa3d14610030575b600080fd5b61004a6004803603810190610045919061022f565b61004c565b005b60008054906101000a900460ff161561006457600080fd5b60016000806101000a81548160ff0219169083151502179055507fe3e55892fc5ad134348ab702095addc3017dd5b1b0ea5be15b74215cdd563f0082826040516100af929190610326565b60405180910390a160008060006101000a81548160ff0219169083151502179055505050565b6000604051905090565b600080fd5b600080fd5b600080fd5b600080fd5b6000601f19601f8301169050919050565b7f4e487b7100000000000000000000000000000000000000000000000000000000600052604160045260246000fd5b61013c826100f3565b810181811067ffffffffffffffff8211171561015b5761015a610104565b5b80604052505050565b600061016e6100d5565b905061017a8282610133565b919050565b600067ffffffffffffffff82111561019a57610199610104565b5b6101a3826100f3565b9050602081019050919050565b82818337600083830152505050565b60006101d26101cd8461017f565b610164565b9050828152602081018484840111156101ee576101ed6100ee565b5b6101f98482856101b0565b509392505050565b600082601f830112610216576102156100e9565b5b81356102268482602086016101bf565b91505092915050565b60008060408385031215610246576102456100df565b5b600083013567ffffffffffffffff811115610264576102636100e4565b5b61027085828601610201565b925050602083013567ffffffffffffffff811115610291576102906100e4565b5b61029d85828601610201565b9150509250929050565b600081519050919050565b600082825260208201905092915050565b60005b838110156102e15780820151818401526020810190506102c6565b60008484015250505050565b60006102f8826102a7565b61030281856102b2565b93506103128185602086016102c3565b61031b816100f3565b840191505092915050565b6000604082019050818103600083015261034081856102ed565b9050818103602083015261035481846102ed565b9050939250505056fea2646970667358221220d40b94c37928ea3ea2638646ea4f1aec98b32eb60f9b365827f818bef6a7e4ba64736f6c63430008110033",
  "linkReferences": {},
  "deployedLinkReferences": {}
}